:04000000FFEF26F0F8
:08000800046ED8CF05F0E0CF33
:1000100006F00001E9CF0CF0EACF07F0E1CF08F0DD
:10002000E2CF09F0D9CF0AF0DACF0BF0F3CF12F01C
:10003000F4CF13F0FACF14F0F5CF15F0F6CF16F099
:10004000F7CF17F000C00EF001C00FF002C010F0A3
:1000500003C011F09DA230EF00F09EB2B2EF00F0AD
:10006000F2A836EF00F0F2B22CEF01F0F2A63CEF6E
:1000700000F0F2B032EF01F09DAA42EF00F09EBA1C
:1000800039EF01F00EC000F00FC001F010C002F017
:1000900011C003F00CC0E9FF07C0EAFF078E08C0DB
:1000A000E1FF09C0E2FF0AC0D9FF0BC0DAFF12C0AE
:1000B000F3FF13C0F4FF14C0FAFF15C0F5FF16C01C
:1000C000F6FF17C0F7FF045006C0E0FF05C0D8FFD9
:1000D0001000F76AE20FF66E000EF7220900F550E5
:1000E00012001027E80364000A000100F76AFC0F01
:1000F000F66E000EF7220900F550120031320000B2
:10010000F76A100FF66E010EF7220900F550120083
:1001100032340000F76A240FF66E010EF722090050
:10012000F550120034380000F76A380FF66E010EF1
:10013000F7220900F550120039360000F76A4C0F1B
:10014000F66E010EF7220900F55012003139320027
:10015000F76A600FF66E010EF7220900F5501200E3
:1001600035373600D89001011D35816F1E35826FFD
:10017000938A000E81AA010E811381C11DF1825163
:10018000E0091E6F1D5309E11E51F00806E1538C72
:100190005380140E586E1E0E596ED8901F35816F05
:1001A0002035826F938C000E81AC010E811381C1CA
:1001B0001FF18251E009206F1F5309E12051F0081F
:1001C00006E154805380140E586E1E0E596ED8905E
:1001D0002135816F2235826F938E000E81AE010E24
:1001E000811381C121F18251E009226F215309E17C
:1001F0002251F00806E1538E5380140E586E1E0EE5
:10020000596E1C2B1C517D0802E153881C6B1A2B64
:10021000D8B41B2B1A51E0081BE11B51030818E14D
:100220001B6B1A6B53805382522A52503B0802E1D7
:10023000526A5384585203E194908B8003D0949077
:100240008B905806595202E1538A02D0539A5906AC
:100250009E92000142EF00F01F2AD8B4202AF292A9
:1002600042EF00F081CF81F181C123F1F29042EFA2
:1002700000F02AC12BF129C12AF127C128F125C19B
:1002800026F124C125F19EAAFED7AECF24F10101AB
:100290009E9A000142EF00F04C6F6164696E672026
:1002A00064656661756C7400706172616D6574651A
:1002B00072732100507265762020536574202020CF
:1002C0004E65787400002D20202020205365742076
:1002D00020202020202B00002D20202020204E65D3
:1002E000787420202020202B00004E4F202020203A
:1002F000594553005072657620456E746572202012
:100300004E6578740000536C656570204F6B6179A1
:100310003F005945532100004E4F2E2E2E00204203
:100320006174743A2025302E316C6620766F6C74BF
:100330007300536F6C61723A2025302E316C662049
:10034000766F6C747300536F6C6172353A20253090
:100350002E316C6620766F6C74730000457874657E
:10036000726E3A2025302E316C6620766F6C747375
:1003700000004F666620416C776179730000446924
:10038000666665722E004F6E204F766572004F6E66
:1003900020556E64657200004F6E20416C77617964
:1003A00073004F666620416C776179730000446981
:1003B00066666572656E7469616C00004F6E204FF1
:1003C000766572004F6E20556E64657200004F6E48
:1003D00020416C7761797300413A20004F666600D6
:1003E0004F6E2000423A20004F6666004F6E20009C
:1003F000433A20004F6666004F6E2000436F756ED3
:100400007420546F74616C3A000052656C617920FD
:1004100025632053657474696E67730052656C615F
:100420007920616C77617973206F6E2E00004E6FBA
:100430002073657474696E67732E000052656C6179
:10044000792025632053657474696E677300526563
:100450006C617920616C77617973206F666600004A
:100460004E6F2073657474696E67732E0000526559
:100470006C61792025632053657474696E6773001D
:10048000557365206368616E6E656C2025753F004D
:10049000594553202020535441592020204E4F00CD
:1004A0004F76657220543A202530346C6425630001
:1004B00052656C61792025632053657474696E6799
:1004C0007300557365206368616E6E656C202575D9
:1004D0003F00594553202020535441592020204E9D
:1004E0004F00556E64657220543A202530346C6498
:1004F0002563000052656C61792025632053657483
:1005000074696E6773004869676820736964653A47
:10051000202575004C6F7720736964653A20257536
:10052000000044656C746120543A202530346C75A9
:10053000256300004869204C696D69743A202530B4
:10054000346C7525630052532D3233322053657459
:100550007570000052532D3233322044697361624A
:100560006C656400426175643A2025733030000088
:1005700053656E736F722054797065003020746F0C
:1005800020355620416E616C6F6700003520746F16
:1005900020305620416E616C6F67000052617720F9
:1005A000416E616C6F6720566F6C740052617720EA
:1005B000414443004E544320546865726D6973741E
:1005C0006F72000052656C61792043205479706528
:1005D00000005472692D5374617220283029000084
:1005E00044697361626C6564000052656C617920D6
:1005F0002563204D6F64650054656D70657261748C
:1006000075726520556E69740000446973706C6181
:100610007920556E6974733A000020432020202011
:1006200053544159202020204600526573746F7244
:10063000652044656661756C74730000526573745F
:100640006F72652044656661756C747300004D615E
:10065000696E205365747570204D656E7500536525
:100660007474696E6720534E2E2E2E005365726986
:10067000616C3A20256300004E65772053657269EE
:10068000616C20233A00546865726D6F6B536F6C18
:1006900061722D34410031312D4A756C2D31350098
:1006A000534E3A2025632530356C7500232054685D
:1006B00065726D6F6B536F6C61722D3441202573C1
:1006C0000D0A000031312D4A756C2D313500556E03
:1006D0006974732073657420746F20009EA8FED720
:1006E000AD6E12005E50000A0BE0010A11E0030A31
:1006F00017E0010A1BE0070A1FE0010A23E02AD0E5
:10070000B886400EAF6E030EB06EA60EAC6E25D04E
:10071000B886A00EAF6E010EB06EA60EAC6E1DD0E8
:10072000B8960C0EAF6EA20EAC6E17D0B896190E1E
:10073000AF6EA60EAC6E11D0B8960C0EAF6EA60EB4
:10074000AC6E0BD0B886100EAF6E000EB06EA60E5B
:10075000AC6E03D094928B9202D094928B82120052
:10076000B896190EAF6EA60EAC6E94928B82929CC8
:10077000898C01014B51020805E1020E0001AEDF38
:1007800004D00101010E0001A9DF050EA7DF000E54
:10079000A5DF010EA3DF000EA1DF000E9FDF9C0E80
:1007A0009DDF01014B51020805E1390E000196DF82
:1007B00004D001010A0E000191DF94DF1200B89607
:1007C000190EAF6EA60EAC6E94928B82929C898CA1
:1007D00001014B51020805E1020E00017FDF04D048
:1007E0000101010E00017ADF050E78DF000E76DFD1
:1007F000010E74DFFF0E72DF000E70DFDD0E6EDFA4
:1008000001014B51020805E1C90E000167DF04D068
:100810000101FA0E000162DF65DF120001014A5397
:1008200004E193968A96519015D04A2D04D093985E
:100830008A9851920FD00001892D0AD0010E010132
:100840004B6F00018DDF020E01014B6F0001B7DF1E
:100850005194010100011200010EEA6E6E0EE96E64
:10086000EF5011E0010E016EBF0E006E0400002E6D
:10087000FDD7012EF9D74A0E006E002EFED70000DC
:100880000400EF2EEFD712009298898892988998E9
:10089000120001015ABF02D0899601D08986929632
:1008A0005ABD02D0899401D0898492945ABB02D057
:1008B000899201D0898292925AB902D0899001D04E
:1008C000898092900001E0DF01015AB702D0899639
:1008D00001D0898692965AB502D0899401D0898434
:1008E00092945AB302D0899201D0898292925AB1DD
:1008F00002D0899001D0898092900001C5DF040068
:100900000C0E006E002EFED700D012000F0E01015B
:100910006E6F0001A1DF929E899E929A899A9296AB
:100920008996929489949292898292908980ACDF80
:10093000050E01016E6F00018FDFA6DF0400200E9F
:10094000006E002EFED700D09FDF050E01016E6FF6
:10095000000182DF9290899097DF04000C0E006EF8
:10096000002EFED700D0280E01015A6F000191DF42
:100970000C0E01015A6F00018CDF060E01015A6F47
:10098000000187DF010E01015A6F000182DF29EFAC
:1009900005F094948B842CEF05F0600ED36ED35049
:1009A000070EB46E9250926E0400020E006E002E7E
:1009B000FED700D0B450A19CC290C150C00B0F090B
:1009C000C16E5394538253805396539A5388539CC9
:1009D000539E5490140E586E556A566A576A010118
:1009E000436B4351030824E34351040DF350036A5E
:1009F000310FE96E000E0320EA6E850EEF6EC70E12
:100A0000EC6ECC0EEC6ECD0EEC6E4351040DF3503B
:100A1000036A410FE96E000E0320EA6E850EEF6E49
:100A2000C70EEC6ECC0EEC6ECD0EEC6E432BD9D710
:100A3000526A206A1F6A4A6B0001F0DE010E010152
:100A40004A6F0001EBDE020E01014A6F0001E6DE93
:100A50005DD793948A849DD7000E0609CA6E3D0E19
:100A6000CB6E9D8A9D82F19E010E01016E6F000189
:100A7000F3DEF19CF288C00EF212D6EF27F00101EE
:100A80004C6B4BC103F04A51D8B44B074A074D6F2A
:100A900003C04EF14D5302E14E5332E049C103F021
:100AA0004851E96E03C0EAFF4751036E4651462B99
:100AB000D8B4472B4F6F03C050F1F2CF51F1F29EE3
:100AC00050C1AAFF4FC1A9FFA69CA69EA680A85010
:100AD00051BFF28EEF6E49C103F04851E96E03C079
:100AE000EAFFEFCF4DF14CC156F14DC157F15651D0
:100AF0005719016E01C04CF1482BD8B4492BC1D70E
:100B00004CC101F00001A8EF06F0929E899E010EF3
:100B100001015A6F0001BDDE020E01016E6F00017E
:100B20009BDE1200929E898E59C15AF1B2DE1200EC
:100B30000900F5520CE0F6CF4BF1F7CF4CF1F5CFB1
:100B400059F1F0DF4BC1F6FF4CC1F7FFF1D71200AE
:100B5000929E899E800E01014C254D6F5A6F0001B7
:100B600098DE12000101546B53C103F05251D8B406
:100B700053075207556F03C056F1555302E15653C0
:100B80003EE051C103F05051E96E03C0EAFFEFCFE0
:100B900055F154C156F155C157F156515719016ECF
:100BA00001C054F14F51036E4E514E2BD8B44F2B10
:100BB000556F03C056F15151036E5051502BD8B4AC
:100BC000512BE96E03C0EAFFEFCF57F156C1AAFFE0
:100BD00055C1A9FF57C1A8FFA69CA69EA684F250A6
:100BE000006EF29E0F01550EA76EAA0EA76EA6828A
:100BF000A6B2FED7A6940050F2120101B5D754C197
:100C000001F0000114EF06F001014D6B5A0E4C6F1C
:100C10004F6B010E4E6F4DC151F14CC150F1536BF2
:100C2000300E526F00019ED701C04BF1AA6AA96A2B
:100C30004BC1A8FFA69CA69EA684F250006EF29E11
:100C40000F01550EA76EAA0EA76EA682A6B2FED7FA
:100C5000A6940050F2120001120057DF980EF66EB3
:100C6000020EF76E65DF400E01014C6F000170DF70
:100C7000A80EF66E020EF76E5BDF0C0E0101456FDB
:100C8000FA0E6E6F0001E8DD0101452FF9D7410E24
:100C90005A6E5C6A5B6A610E5D6E060E5E6E010ED8
:100CA0005F6E626A030E656E696A0B0E686E6F6A2C
:100CB000550E6E6E0F0E746E786A5F0E776E0F0EA5
:100CC0007D6E0001816B050E806F020E606E010E5D
:100CD000636E030E666E6B6A0B0E6A6E716A550E5A
:100CE000706E0F0E756E7A6A550E796E0F0E7E6EEF
:100CF000836B050E826F020E616E010E646E030E31
:100D0000676E6D6A0B0E6C6E736A550E726E0F0E07
:100D1000766E7C6A550E7B6E0F0E7F6E856B050EB0
:100D2000846F866B010E876F886B896B6DDF120095
:100D30000101456B5A0E446F476B010E466F45C16A
:100D400049F144C148F14B6B300E4A6F000197D610
:100D500001C043F1F2CF44F1F29EAA6AA96AA69CAF
:100D6000A69EA680A850010144BFF28E435D06E115
:100D70005D50600803E25D507A0803E200016DDF18
:100D800001010001DEEF27F00900F6CF4DF1F7CFAA
:100D90004EF1F5CF59F1C6DE4DC1F6FF4EC1F7FF5A
:100DA00001014C2F01D002D00001EED7000112004A
:100DB000EACF53F1E9CF52F101014C39F0094E6FFE
:100DC0004E27E20F4F6F320F516F4C510F0B4F27D1
:100DD0004F275127E90F506F502750274B390F0BE2
:100DE0005027512750375137511F51374B510F0B57
:100DF00051274E37070E4D6F0A0E50075127FDE35E
:100E00004F075027FDE34E074F27FDE34D074E27C1
:100E1000FDE3010EEA6E4D0EE96E070E5215529D6E
:100E2000E926510EE95CD8B4528DEF50006E08E10E
:100E300052BD06D052B915D052B702D0200E03D001
:100E400052875299300E0026EACF4CF1E9CF4BF190
:100E500000C059F1000166DE4CC1EAFF4BC1E9FF59
:100E60000101EE5052ADDDD7000112000900F6CFAE
:100E700044F1F7CF45F1F5509EA8FED7AD6E44C1C1
:100E8000F6FF45C1F7FF0101432F01D002D0000159
:100E9000EDD7000122EF28F00900F5520DE0F6CF62
:100EA00043F1F7CF44F1F5509EA8FED7AD6E43C194
:100EB000F6FF44C1F7FFF0D728EF28F02DC1EAFF75
:100EC0002CC1E9FF010154C1EFFFE92AD8B4EA2A95
:100ED000EF6A2C2BD8B42D2B0001C3EF07F0EACF1B
:100EE00053F1E9CF52F101014C39F0094E6F4E2711
:100EF000E20F4F6F320F516F4C510F0B4F274F279F
:100F00005127E90F506F502750274B390F0B5027AF
:100F1000512750375137511F51374B510F0B512724
:100F20004E37070E4D6F0A0E50075127FDE34F074E
:100F30005027FDE34E074F27FDE34D074E27FDE306
:100F4000010EEA6E4D0EE96E070E5215529DE9260E
:100F5000510EE95CD8B4528DEF50006E08E152BDDD
:100F600006D052B915D052B702D0200E03D0528706
:100F70005299300E0026EACF4CF1E9CF4BF100C078
:100F800054F100019BD74CC1EAFF4BC1E9FF0101BD
:100F9000EE5052ADDDD7000115EF08F0400E010113
:100FA0004C6F0001D5DDC60EF66E020EF76EC0DD89
:100FB0001200EF520FE0EACF4CF1E9CF4BF1EFCF47
:100FC00059F1B0DD4CC1EAFF4BC1E9FFE92AD8B4C1
:100FD000EA2AEFD71200929E899E4BC15AF159DC42
:100FE00004000C0E006E002EFED700D0120001018E
:100FF0004D514F03F3CF01F0F4CF00F05003F35005
:1010000000264E514F03F3500020026E00011200E3
:10101000010E01012D6F450E2C6F080EE96E8BC07D
:101020004CF18AC04BF100015AD7B8DF90C04CF1A7
:101030008FDD010EEA6E450EE96EBBDF9051912502
:1010400001014B6F4C6F000183DD0E0E01014B6FF0
:101050000001C1DF53AC41D0539C036A9151450F4D
:10106000E96E010E0320EA6EEF50350807E1915357
:1010700005E1500E8A5FC30E8B5B2ED0036A91513F
:10108000450FE96E010E0320EA6EEF50390819E1B1
:10109000D8909135036A69EC00F00900F5CF03F0B0
:1010A00001014B6F03C04CF103C04EF14D6F506B0B
:1010B000090E4F6F00019BDF01508A5F02508B5B6E
:1010C0000BD0D8909135036A69EC00F00900F5CF98
:1010D00003F08A2703508B23538053AE41D0539E95
:1010E000036A9151450FE96E010E0320EA6EEF503D
:1010F000300807E1915305E1500E8A27C30E8B2378
:101100002ED0036A9151450FE96E010E0320EA6E5D
:10111000EF50300819E1D8909135036A69EC00F07E
:101120000900F5CF03F001014B6F03C04CF103C080
:101130004EF14D6F506B090E4F6F000158DF01509B
:101140008A2702508B230BD0D8909135036A69EC23
:1011500000F00900F5CF03F08A5F03508B5B5380EA
:1011600054A003D05490912B53809151050808E16D
:101170000C0E01014B6F00012EDF010E016E02D03B
:10118000000E016EFFEF08F0C0DC5E0EF66E060E7C
:10119000F76ECEDC0A0E0101456FFA0E6E6F00018C
:1011A0002CEC04F00101452FF8D75CC08BF05BC03C
:1011B0008AF00001916B090E906F01014469436947
:1011C000040000018A510101435D05E100018B51DA
:1011D0000101445D12E0000198DC6C0EF66E060E13
:1011E000F76E080E01014C6F0001CEDD5AC059F1B7
:1011F00099DC8BC044F18AC043F1000109D7015248
:1012000005E08BC05CF08AC05BF003D00101D8D749
:1012100000017BDC780EF66E060EF76E89DC400E60
:1012200001014C6F000194DC5AC059F17BDC080EBF
:10123000E96E5CC04CF15BC04BF1BADD0C0E0101F4
:10124000456FFA0E6E6F00012CEC04F00101452F82
:10125000F8D70001D9DC8EEF28F094968B96949AFB
:101260008B8A94948B940101465303E1030E4A6FD9
:1012700025D0462D03D0130E4A6F20D046510208C8
:1012800003E10B0E4A6F1AD04651030803E11B0E0F
:101290004A6F14D04651040803E1070E4A6F0ED07E
:1012A0004651050803E1170E4A6F08D0465106085B
:1012B00003E10F0E4A6F02D01F0E4A6F496B49516E
:1012C00004080EE394968B964AB102D08B9A01D013
:1012D0008B8A949AD8904A3394968B86492BEFD771
:1012E000486B476B496B49510D080EE394968B96FA
:1012F000948882B802D0D89001D0D8804737483738
:1013000094968B86492BEFD7489B489994948B846D
:1013100047C101F048C102F000011200D8B204D068
:10132000010EEA6E610EE96E006A016A026A036AE2
:101330000101616B626B636B646B60515F115E11E5
:101340005D112CE0200E656FD89059375A375B3706
:101350005C3761376237633764376051645D08E139
:101360005F51635D05E15E51625D02E15D51615D6A
:101370000FE35D51615F5E51D8A05E3D625F5F51DA
:10138000D8A05F3D635F6051D8A0603D645FD880A6
:101390000036013602360336652FD6D761C1EFFF1E
:1013A00062C1ECFF63C1ECFF64C1ECFF00011200FD
:1013B000D890B235036A920FE96E000E0320EA6EF0
:1013C00046C1ECFFED5245C1EFFFB22BB2510F0801
:1013D00001E2B26BB3510F0801E3B32B01014E6B75
:1013E0004D6B4C6B4B6B4F6B0001B35101014F5D6B
:1013F00014E2D8904F35036A920FE96E000E032075
:10140000EA6EECCF03F0ED52EF504B2703504C2324
:10141000000E4D234E234F2BE7D7D8900001B33158
:10142000006E016A026A036A005001014B25516F88
:1014300001504C21526F02504D21536F03504E21E9
:10144000546FD8925C6F53C15BF152C15AF151C1D4
:1014500059F1606B5F6B5E6BB3C05DF100015EDFE5
:1014600003C04AF102C049F101C048F100C047F190
:10147000010147C101F048C102F00001A0EF28F0CE
:10148000D890D435036AB40FE96E000E0320EA6EDB
:1014900046C1ECFFED5245C1EFFFD42BD4510F08EC
:1014A00001E2D46BD5510F0801E3D52B01014E6B3E
:1014B0004D6B4C6B4B6B4F6B0001D55101014F5D78
:1014C00014E2D8904F35036AB40FE96E000E032082
:1014D000EA6EECCF03F0ED52EF504B2703504C2354
:1014E000000E4D234E234F2BE7D7D8900001D53166
:1014F000006E016A026A036A005001014B25516FB8
:1015000001504C21526F02504D21536F03504E2118
:10151000546FD8925C6F53C15BF152C15AF151C103
:1015200059F1606B5F6B5E6BD5C05DF10001F6DE5B
:1015300003C04AF102C049F101C048F100C047F1BF
:10154000010147C101F048C102F00001B4EF28F0E9
:10155000D890F635036AD60FE96E000E0320EA6EC6
:1015600046C1ECFFED5245C1EFFFF62BF6510F08D7
:1015700001E2F66BF7510F0801E3F72B01014E6B07
:101580004D6B4C6B4B6B4F6B0001F75101014F5D85
:1015900014E2D8904F35036AD60FE96E000E03208F
:1015A000EA6EECCF03F0ED52EF504B2703504C2383
:1015B000000E4D234E234F2BE7D7D8900001F73173
:1015C000006E016A026A036A005001014B25516FE7
:1015D00001504C21526F02504D21536F03504E2148
:1015E000546FD8925C6F53C15BF152C15AF151C133
:1015F00059F1606B5F6B5E6BF7C05DF100018EDED1
:1016000003C04AF102C049F101C048F100C047F1EE
:10161000010147C101F048C102F00001C8EF28F004
:10162000D89001011835036AF80FE96E000E032007
:10163000EA6E46C1ECFFED5245C1EFFF182B185181
:101640000F0801E2186B19510F0801E3192B4E6BBB
:101650004D6B4C6B4B6B4F6B19514F5D14E2D89037
:101660004F35036AF80FE96E000E0320EA6EECCFE7
:1016700003F0ED52EF504B2703504C23000E4D2347
:101680004E234F2BE9D7D8901931006E016A026AB8
:10169000036A00504B25516F01504C21526F02508C
:1016A0004D21536F03504E21546FD8925C6F53C13C
:1016B0005BF152C15AF151C159F1606B5F6B5E6BC6
:1016C00019C15DF100012ADE03C04AF102C049F1EF
:1016D00001C048F100C047F1010147C101F048C114
:1016E00002F00001DCEF28F08E0E006E59C101F00F
:1016F00058C102F0036A015209E102C001F0026A16
:10170000080E005E015202E1006A08D0D89001BEC6
:1017100004D0023601360006F9D7019E12000101FD
:101720006D51D8B471D0006E7151D8B46DD000260F
:1017300004E3810E002668E204D07F0E005E64E3BD
:1017400063E06EC175F17251751B6E8F728F7051AF
:101750007403F4CF77F16F517303F4CF03F0F3CF39
:1017600076F17403F3507727F4507623000E0322AA
:1017700070517303F3507727F4507623000E026AFA
:10178000032202226E517403F3507627F450032291
:10179000000E02226E517303F3500326F45002220E
:1017A000000E016A012270517203F3507627F45043
:1017B0000322000E022201226F517203F35003260E
:1017C000F4500222000E01226E517203F3500226E1
:1017D000F4500122002A01BE05D0763703360236C6
:1017E00001360006000E76AF0AD0032A022201223B
:1017F000015005E1025003E1035001E1002A75BFE9
:10180000018E75AF019E04D0006A016A026A036A04
:1018100000011200800ED8A202D00101761B010146
:101820007B6B7C6B72C17AF176517A1B7151D8B4A3
:10183000DFD0796F006E7551D8B4E3D0795FD8B43A
:1018400083D03EE376C17FF17F8F77C17EF178C18F
:101850007DF17C6BD8907F337E337D337C33792F61
:10186000F8D77AAF03D07B81E0D07B9179917B89E7
:10187000010EEA6E740EE96EEBD07B997ABF0AD046
:1018800079A113D07F337E337D337C33002AD8B4E3
:10189000C7D00BD07FBF0CD0D8907C377D377E3738
:1018A0007F370006D8B4BCD0F5D77B8D6DD07B9D3B
:1018B00072C17AF172AF02D07F8FABD07F9FA9D077
:1018C00075C179F175C100F07151795F72C17FF115
:1018D0007F8F73C17EF174C17DF17C6BD8907F33B3
:1018E0007E337D337C33792FF8D77AAF03D07B8377
:1018F0009CD07B9379917B8B010EEA6E780EE96E1A
:10190000A7D07B9B7ABF0AD079A113D07F337E33D7
:101910007D337C33002AD8B483D00BD07FBF0CD06A
:10192000D8907C377D377E377F370006D8B478D0A3
:10193000F5D77B8F29D07B9F76C17AF176AF02D025
:101940007F8F67D07F9F65D076C17FF17F8F77C112
:101950007EF178C17DF17AAF04D07F9F7B8565D021
:101960007B957C6B7991010EEA6E740EE96E70D0F6
:101970007ABF1CD072C17AF179A106D07F337E3351
:101980007D337C33002A4CE07CAF0BD07D2B09E10A
:101990007E2B07E17F2B05E17F337E337D33002AE9
:1019A0003FE07BBD84D77BBFC6D71CD0800E7F1B9A
:1019B0007FAF04D03AD076C17AF10AD072C17AF101
:1019C0007F5306E17E5304E17D5302E1006A21D09A
:1019D0007FBF08D0D8907C377D377E377F37002E89
:1019E000F7D71ED07AAF02D07F8F13D07F9F11D050
:1019F00075C100F076C17FF177C17EF178C17DF1CC
:101A000008D071C100F072C17FF173C17EF174C161
:101A10007DF17FC101F07EC102F07DC103F034D0C1
:101A2000006A016A026A036A2FD07C6B7D1F7E1FE9
:101A30007F1F7C1F7C2B05E17D2B03E17E2B01E1C9
:101A40007F2B7BB112D77BB354D77BB589D7B3D764
:101A5000EF507D2705E37E2B03E17F2BD8B47981FE
:101A6000ED52EF507E2703E37F2BD8B47981ED52FE
:101A7000EF50EFBE01D0800A7F27D8B079817BB9C3
:101A8000FCD67BBB3ED774D7000112000101715117
:101A9000D8B4A5D07D6F7551D8B4A1D07D5F05E3D2
:101AA0007F0E7D27D8B09BD006D0810E7D5FD8A059
:101AB00096D0D8B494D07DC100F0016A026A036A5E
:101AC0007C6B72C17BF17B8F73C17AF174C179F148
:101AD000190E7D6F7851795F0DE2010E7A5F0AE28F
:101AE0007B5F08E27C5F06E27C2B7B2B7A2B7851B4
:101AF000792728D077517A5F12E2010E7B5F0FE2DF
:101B00007C5F0DE27C2B7B2B77517A2778517927EC
:101B100019E37A2B17E17B2B15E17C2B13D076513F
:101B200080097B5F0EE2010E7C5F0BE27C2B76511D
:101B300080097B2777517A27E9E37B2BE7E17C2B30
:101B4000E5D703807D2F01D00BD0D89079377A3735
:101B50007B377C37D8900336023601367E37BAD7CA
:101B60007EA106D0D8900132023203327E3302D0F9
:101B7000000635E07EBF1ED0D89079377A377B37A4
:101B80007C377851795F07E2010E7A5F04E27B5F70
:101B900002E27C5F1AE377517A5F05E2010E7B5F18
:101BA00002E27C5F12E3765180097B5F03E2010E63
:101BB0007C5F0BE3032A09E1022A07E1012A05E120
:101BC000002A0DE001320232033272C17DF17651FA
:101BD0007D1B7DAF02D0018E06D0019E04D0006A2D
:101BE000016A026A036A000112006EC175F1010107
:101BF0007251751B75AF05D0D894D8906EBFD88040
:101C00002FD06EC175F171C176F16D51765F06E02E
:101C100075AF26D0D850010AD86E22D072C176F1A5
:101C20006E51765F06E075AF1BD0D850010AD86EB2
:101C300017D073C176F16F51765F06E075AF10D0A3
:101C4000D850010AD86E0CD074C176F17051765F0D
:101C500006E075AF05D0D850010AD86E01D0D890F3
:101C6000000112008E0E006E6EC101F06DC102F017
:101C7000036A01AE05D0011E021E022A01E1012AFB
:101C8000015209E102C001F0026A080E005E015231
:101C900002E1006A0ED0D89001BE04D002360136AF
:101CA0000006F9D701016EAF02D0000102D0019EFB
:101CB000000112005BC15FF15AC15EF159C15DF1D3
:101CC00058C15CF15FC170F15EC16FF15DC16EF131
:101CD0005CC16DF10101746B736B726B7F0E716F80
:101CE000000183DFD8B492D1010E01016E6F5C0E4A
:101CF000E96E6EC1EAFF7E0EEF6ED8825FC174F1AD
:101D00005EC173F15DC172F15CC171F1786B776B8B
:101D1000766B7F0E756F00017DDD00C06DF101C037
:101D20006EF102C06FF103C070F1D8925FC174F11F
:101D30005EC173F15DC172F15CC171F10101786B3B
:101D4000776B766B7F0E756F000164DD70C174F187
:101D50006FC173F16EC172F16DC171F103C078F1A1
:101D600002C077F101C076F100C075F18FDE03C0CB
:101D70005FF102C05EF101C05DF100C05CF15FC1C6
:101D800070F15EC16FF15DC16EF15CC16DF15FC15B
:101D900074F15EC173F15DC172F15CC171F1BFDCC0
:101DA00003C06BF102C06AF101C069F100C068F1C3
:101DB000990E0101706F470E6F6F8A0E6E6F7F0E66
:101DC0006D6F6BC174F16AC173F169C172F168C161
:101DD00071F10001A4DC00C06DF101C06EF102C020
:101DE0006FF103C070F1D89203C074F102C073F1B7
:101DF00001C072F100C071F10101786B776B766BF5
:101E0000800E756F000106DD03C063F102C062F150
:101E100001C061F100C060F14C0E0101706FF30E62
:101E20006F6F3A0E6E6F7B0E6D6F6BC174F16AC18E
:101E300073F169C172F168C171F1000170DC00C019
:101E40006DF101C06EF102C06FF103C070F1D89264
:101E500003C074F102C073F101C072F100C071F1EE
:101E60002B0E0101786F9D0E776FDF0E766F7E0E61
:101E7000756F0001CFDC03C067F102C066F101C0DD
:101E800065F100C064F167C170F166C16FF165C1B1
:101E90006EF164C16DF16BC174F16AC173F169C116
:101EA00072F168C171F13BDC00C06DF101C06EF1EF
:101EB00002C06FF103C070F1D89203C074F102C088
:101EC00073F101C072F100C071F10101786B776BA1
:101ED000766B7F0E756F00019DDC03C067F102C059
:101EE00066F101C065F100C064F15FC170F15EC1CF
:101EF0006FF15DC16EF15CC16DF163C174F162C1DE
:101F000073F161C172F160C171F109DC00C06DF162
:101F100001C06EF102C06FF103C070F103C074F133
:101F200002C073F101C072F100C071F167C178F1B4
:101F300066C177F165C176F164C175F1A7DD03C0B3
:101F400063F102C062F101C061F100C060F1010EF5
:101F500001016E6F580EE96E6EC1EAFF7E0EEF5CF6
:101F60006C6F6CBF01D014D0000ED8806C556E6BB6
:101F70006D6F6DBF6E07000175DE00C064F101502A
:101F8000800A0101656F02C066F103C067F110D0DD
:101F90006E6B6CC16DF16DBF6E07000163DE03C037
:101FA00067F102C066F101C065F100C064F1010192
:101FB00067C170F166C16FF165C16EF164C16DF109
:101FC000180E746F720E736F310E726F7E0E716F1A
:101FD00000018FEC0BF0D89263C174F162C173F110
:101FE00061C172F160C171F103C078F102C077F193
:101FF00001C076F100C075F10DDC03C063F102C0D1
:1020000062F101C061F100C060F106D00101636BB3
:10201000626B616B606B000160C100F061C101F037
:1020200062C102F063C103F099EF10F001014B515E
:102030000E080EE2FF0A03E14A51A00809E2850EEC
:10204000006EC70E016ECC0E026ECD0E036EC6D0B2
:102050004BC159F14AC158F1000174EC0BF0010178
:10206000706B6F6B200E6E6F750E6D6F03C074F129
:1020700002C073F101C072F100C071F100018FEC78
:102080000BF003C057F102C056F101C055F100C07A
:1020900054F10101706B400E6F6F9C0E6E6F8C0ED1
:1020A0006D6F57C174F156C173F155C172F154C1CE
:1020B00071F100018FEC0BF000C058F101C059F133
:1020C00002C05AF103C05BF1D88257C174F156C106
:1020D00073F155C172F154C171F10101786B776BE5
:1020E000200E766F810E756F00010AEC0CF05BC15B
:1020F00074F15AC173F159C172F158C171F103C041
:1021000078F102C077F101C076F100C075F1BEDC54
:1021100003C04FF102C04EF101C04DF100C04CF1BF
:102120004FC15BF14EC15AF14DC159F14CC158F14B
:10213000C1D500C058F101C059F102C05AF103C025
:102140005BF1EACF5DF1E9CF5CF1D89203C074F1A5
:1021500002C073F101C072F100C071F1540E0101AF
:10216000786F1D0E776F040E766F810E756F00010C
:102170000AEC0CF05DC1EAFF5CC1E9FF0101746B80
:10218000900E736F780E726F8A0E716F03C078F1C4
:1021900002C077F101C076F100C075F1000176DC74
:1021A00003C053F102C052F101C051F100C050F11F
:1021B000D88253C174F152C173F151C172F150C14F
:1021C00071F1330E0101786F930E776F080E766F01
:1021D000870E756F00010AEC0CF00101000181EF20
:1021E00011F04BC159F14AC158F174EC0BF003C026
:1021F00070F102C06FF101C06EF100C06DF1E10E2F
:102200000101746F0B0E736F3E0E726F7A0E716F59
:1022100000018FEC0BF000C04CF101C04DF102C089
:102220004EF103C04FF1D88203C074F102C073F1C4
:1022300001C072F100C071F10101786B776B200E63
:10224000766F840E756F00010AEC0CF089EF11F0C7
:102250004BC159F14AC158F174EC0BF003C070F155
:1022600002C06FF101C06EF100C06DF1E10E01011D
:10227000746F0B0E736FBE0E726F7A0E716F00016A
:102280008FEC0BF000C04CF101C04DF102C04EF1DB
:1022900003C04FF1D89203C074F102C073F101C0C2
:1022A00072F100C071F10101786B776B160E766FD9
:1022B000860E756F00010AEC0CF092EF11F04BC125
:1022C00059F14AC158F174EC0BF003C070F102C02F
:1022D0006FF101C06EF100C06DF101017469090E6A
:1022E000736F200E726F750E716F00018FEC0BF023
:1022F0009BEF11F0885306E149C14BF148C14AF107
:1023000095D624D0882D06D049C14BF148C14AF159
:1023100068D71CD08851020806E149C14BF148C179
:102320004AF196D713D08851030806E149C14BF111
:1023300048C14AF1C4D70AD08851040807E149C10D
:1023400059F148C158F174EC0BF000D00DEF12F0C8
:10235000660E0101706F6F6F6E6F7F0E6D6F4FC1F4
:1023600074F14EC173F14DC172F14CC171F10001B4
:102370008FEC0BF000C054F101C055F102C056F1D2
:1023800003C057F1D89203C074F102C073F101C0C9
:1023900072F100C071F10101786B776B766B840E7E
:1023A000756F00010AEC0CF003C053F102C052F14A
:1023B00001C051F100C050F150C100F051C101F015
:1023C00052C102F053C103F07AEF12F00101436BE6
:1023D00043510308D8A09DD0D8904335036A210FFC
:1023E000E96E000E0320EA6EECCF03F0ED52EFCF62
:1023F00044F103C045F14351040DF350036A310F1A
:10240000016E000E032201C046F103C047F145C131
:1024100049F144C148F100016DD747C1EAFF46C107
:10242000E9FF00C0EFFF01C0ECFF02C0ECFF03C0FA
:10243000ECFF01014351040DF350036A310FE96EC3
:10244000000E0320EA6EEFCF00F0ECCF01F0ECCFEE
:1024500002F0ECCF03F0CD0E706FCC0E6F6FC70E95
:102460006E6F850E6D6F03C074F102C073F101C011
:1024700072F100C071F10001F5EC0DF013E1010102
:102480004351040DF350036A410FE96E000E03201F
:10249000EA6E850EEF6EC70EEC6ECC0EEC6ECD0EB6
:1024A000EC6E35D001014351040DF350036A410F26
:1024B000016E000E032201C046F103C047F14351F3
:1024C000040DF350036A310FE96E000E0320EA6E2B
:1024D000EFCF48F1ECCF49F1ECCF4AF1ECCF4BF123
:1024E0004BC14FF14AC14EF149C14DF148C14CF1C8
:1024F00000012ED747C1EAFF46C1E9FF00C0EFFF48
:1025000001C0ECFF02C0ECFF03C0ECFF0101432B54
:102510005FD70001E8EF28F0040E0101436F43513B
:1025200007081CE3D8904335036A210F016E000EA3
:10253000032201C044F103C045F143C146F100014B
:102540002DEC09F045C1EAFF44C1E9FF02C0ECFFF0
:10255000ED5201C0EFFF0101432BE1D70001EAEF8B
:1025600028F08E0E006E01014B51005E4CC102F04E
:102570004DC101F0028E005209E0D890025202E1F2
:10258000015204E002320132002EF7D74CAF05D0E1
:10259000011E021E012AD8B4022A00011200010104
:1025A0004A5304E193968A86518017D04A2D04D06D
:1025B00093988A88518211D00001892D0CD0010E88
:1025C00001014B6F0001DFEC03F0020E01014B6FC4
:1025D0000001B0EC03F0518401010001120001017F
:1025E000496B49510208D8A0D7D2036A49515F0FFD
:1025F000E96E000E0320EA6EEF5007E149C14AF18F
:1026000000010EEC04F0C5D20101036A49515F0FCD
:10261000E96E000E0320EA6EEF500108D8A4FFD047
:10262000036A4951620FE96E000E0320EA6EEF5013
:10263000040DF350036A310FE96E000E0320EA6EB9
:10264000EFCF00F0ECCF01F0ECCF02F0ECCF03F0D5
:1026500003C04EF102C04DF101C04CF100C04BF17E
:1026600000017FDF02C044F101C043F1036A0101B0
:102670004951650FE96E000E0320EA6EEF50040D1C
:10268000F350036A310FE96E000E0320EA6EEFCFBC
:1026900000F0ECCF01F0ECCF02F0ECCF03F003C080
:1026A0004EF102C04DF101C04CF100C04BF10001F0
:1026B00058DF02C046F101C045F1D890010149350B
:1026C000036A680FE96E000E0320EA6EECCF03F098
:1026D000ED52EFCF47F103C048F1036A4951650F4E
:1026E000E96E000E0320EA6EEF50040DF350036A0A
:1026F000310FE96E000E0320EA6EEFCF4AF1ECCF06
:102700004BF1ECCF4CF1ECCF4DF1D8904935036A49
:102710006E0FE96E000E0320EA6EECCF03F0ED526F
:10272000EFCF58F103C059F1000174EC0BF003C076
:1027300070F102C06FF101C06EF100C06DF14DC1CA
:1027400074F14CC173F14BC172F14AC171F1F5ECF6
:102750000DF001E205E149C14AF10EEC04F05DD053
:10276000010147514525016E48514621036E015034
:1027700003AE03D044AF0AD002D044BF49D00350C7
:10278000445D46E303E14351015C42E244C16EF122
:1027900043C16DF1000132EC0EF003C070F102C0D4
:1027A0006FF101C06EF100C06DF1CD0E0101746FCB
:1027B000CC0E736FC70E726F850E716F0001F5EC52
:1027C0000DF0D8A402D0010123D046C16EF145C15D
:1027D0006DF132EC0EF003C070F102C06FF101C078
:1027E0006EF100C06DF1CD0E0101746FCC0E736FF0
:1027F000C70E726F850E716F0001F5EC0DF0D8A455
:1028000002D0010105D049C14AF1C9DE06D001015B
:1028100049C14AF100010EEC04F0BBD10101036A89
:1028200049515F0FE96E000E0320EA6EEF50020877
:10283000D8A4CBD0036A4951740FE96E000E03206F
:10284000EA6EEFA027D0D8904935036A770FE96E7A
:10285000000E0320EA6EECCF03F0ED52EFCF58F1FB
:1028600003C059F1000174EC0BF003C070F102C019
:102870006FF101C06EF100C06DF134C074F133C06E
:1028800073F132C072F131C071F1F5EC0DF0D8B0D6
:1028900090D00101036A4951740FE96E000E0320C4
:1028A000EA6EEFA226D0D8904935036A770FE96E19
:1028B000000E0320EA6EECCF03F0ED52EFCF58F19B
:1028C00003C059F1000174EC0BF003C070F102C0B9
:1028D0006FF101C06EF100C06DF138C074F137C006
:1028E00073F136C072F135C071F1F5EC0DF061E2B3
:1028F0000101036A4951740FE96E000E0320EA6E6C
:10290000EFA426D0D8904935036A770FE96E000E00
:102910000320EA6EECCF03F0ED52EFCF58F103C085
:1029200059F1000174EC0BF003C070F102C06FF1BB
:1029300001C06EF100C06DF13CC074F13BC073F199
:102940003AC072F139C071F1F5EC0DF032E20101DB
:10295000036A4951740FE96E000E0320EA6EEFA678
:102960002DD0D8904935036A770FE96E000E032009
:10297000EA6EECCF03F0ED52EFCF58F103C059F1FE
:10298000000174EC0BF003C070F102C06FF101C0E4
:102990006EF100C06DF140C074F13FC073F13EC0F4
:1029A00072F13DC071F1F5EC0DF0D8B002D001012B
:1029B00005D049C14AF1F3DD06D0010149C14AF110
:1029C00000010EEC04F0E5D00101036A49515F0FEC
:1029D000E96E000E0320EA6EEF500308D8A4CBD0B6
:1029E000036A49517D0FE96E000E0320EA6EEFA0E5
:1029F00027D0D8904935036A800FE96E000E032076
:102A0000EA6EECCF03F0ED52EFCF58F103C059F16D
:102A1000000174EC0BF034C070F133C06FF132C0C0
:102A20006EF131C06DF103C074F102C073F101C0E9
:102A300072F100C071F1F5EC0DF0D8B090D0010149
:102A4000036A49517D0FE96E000E0320EA6EEFA282
:102A500026D0D8904935036A800FE96E000E032016
:102A6000EA6EECCF03F0ED52EFCF58F103C059F10D
:102A7000000174EC0BF038C070F137C06FF136C054
:102A80006EF135C06DF103C074F102C073F101C085
:102A900072F100C071F1F5EC0DF061E20101036A21
:102AA00049517D0FE96E000E0320EA6EEFA426D097
:102AB000D8904935036A800FE96E000E0320EA6E54
:102AC000ECCF03F0ED52EFCF58F103C059F1000104
:102AD00074EC0BF03CC070F13BC06FF13AC06EF18A
:102AE00039C06DF103C074F102C073F101C072F11D
:102AF00000C071F1F5EC0DF032E20101036A4951B9
:102B00007D0FE96E000E0320EA6EEFA62DD0D8905F
:102B10004935036A800FE96E000E0320EA6EECCFA0
:102B200003F0ED52EFCF58F103C059F1000174ECFE
:102B30000BF040C070F13FC06FF13EC06EF13DC080
:102B40006DF103C074F102C073F101C072F100C0F5
:102B500071F1F5EC0DF0D8B002D0010105D049C1FA
:102B60004AF11DDD06D0010149C14AF100010EEC18
:102B700004F00FD00101036A49515F0FE96E000EA6
:102B80000320EA6EEF50040805E149C14AF1000153
:102B900006DD0101492B25D50001ECEF28F00101EC
:102BA0005951B608596F036A5AC15DF15A8FD890CE
:102BB0005A335B335C330332023201320032592F15
:102BC000F6D75DAF0BD0001E011E021E031E002AA9
:102BD000D8B4012AD8B4022AD8B4032A00011DEFC0
:102BE00016F0E9500101516F5051536F1CE04FC175
:102BF00070F14EC16FF14DC16EF14CC16DF1746B4E
:102C0000736B200E726F820E716F00018FEC0BF0F0
:102C100003C04FF102C04EF101C04DF100C04CF1B4
:102C20000101532FE4D74FC15CF14EC15BF14DC19F
:102C30005AF14CC159F10001B2D703C04FF102C0A3
:102C40004EF101C04DF100C04CF101014FAF0DD06C
:102C50005107518B4C1F4D1F4E1F4F1F4C2BD8B48B
:102C60004D2BD8B44E2BD8B44F2B3B0E586F9A0E29
:102C7000576FCA0E566F556B0A0E536F5051D8B42A
:102C8000512BD882010EEA6E4C0EE96E4FC15CF1F9
:102C90004EC15BF14DC15AF14CC159F158C160F1BF
:102CA00057C15FF156C15EF155C15DF100018EEC77
:102CB00009F00150005213E101015029535DD8A4DD
:102CC00002D000010CD051510DE00F0B535D01E01B
:102CD00044E251BF42D051BD05D0200E37D0200E66
:102CE0000101511751AB0FD0519B5051D8A451073E
:102CF0000050516F2D0E596F000192EC05F001014B
:102D00005151006E516B5051535D0DE10050516FA8
:102D10002E0E596F000192EC05F001015151006E29
:102D2000200E5117000E300E51AB10D0519B505158
:102D3000D8A451070050516F2D0E596F000192EC2D
:102D400005F001015151006E516B300E002600C09C
:102D500059F1000192EC05F00101D89258C15CF1E3
:102D600057C15BF156C15AF155C159F1606B5F6BA8
:102D70005E6B0A0E5D6F00018EEC09F003C058F126
:102D800002C057F101C056F100C055F10101532FA7
:102D900078D70001120085EC05F0310E0101596F62
:102DA000000192EC05F03A0E0101596F000192EC1E
:102DB00005F0420EE96E44C04FF143C04EF142C0EF
:102DC0004DF141C04CF1010E0101506F000109DFCE
:102DD000200E0101596F000192EC05F0200E010157
:102DE000596F000192EC05F0200E0101596F0001AE
:102DF00092EC05F0080E01014C6F0001A8EC05F003
:102E0000330E0101596F000192EC05F03A0E0101F9
:102E1000596F000192EC05F0420EE96E4CC04FF183
:102E20004BC04EF14AC04DF149C04CF1010E0101B9
:102E3000506F0001D6DEDF0E0101596F000192ECE8
:102E400005F0400E01014C6F0001A8EC05F0320EB8
:102E50000101596F000192EC05F03A0E0101596F22
:102E6000000192EC05F0420EE96E48C04FF147C0F8
:102E70004EF146C04DF145C04CF1010E0101506FBD
:102E80000001AFDE200E0101596F000192EC05F048
:102E9000200E0101596F000192EC05F0200E010196
:102EA000596F000192EC05F0480E01014C6F0001D2
:102EB000A8EC05F0340E0101596F000192EC05F009
:102EC0003A0E0101596F000192EC05F0420EE96ED5
:102ED00050C04FF14FC04EF14EC04DF14DC04CF1BE
:102EE000010E0101506F00017CDE460E0101596F99
:102EF000000192EC05F091EF25F085EC05F0310E24
:102F00000101596F000192EC05F03A0E0101596F71
:102F1000000192EC05F0420EE96E34C04FF133C06F
:102F20004EF132C04DF131C04CF1010E0101506F34
:102F3000000157DE200E0101596F000192EC05F0EF
:102F4000200E0101596F000192EC05F0200E0101E5
:102F5000596F000192EC05F0080E01014C6F000161
:102F6000A8EC05F0330E0101596F000192EC05F059
:102F70003A0E0101596F000192EC05F0420EE96E24
:102F80003CC04FF13BC04EF13AC04DF139C04CF15D
:102F9000010E0101506F000124DEDF0E0101596FA7
:102FA000000192EC05F0400E01014C6F0001A8EC0D
:102FB00005F0320E0101596F000192EC05F03A0E56
:102FC0000101596F000192EC05F0420EE96E38C024
:102FD0004FF137C04EF136C04DF135C04CF1010E06
:102FE0000101506F0001FDDD200E0101596F00014C
:102FF00092EC05F0200E0101596F000192EC05F0F2
:10300000200E0101596F000192EC05F0480E0101FC
:103010004C6F0001A8EC05F0340E0101596F00015E
:1030200092EC05F03A0E0101596F000192EC05F0A7
:10303000420EE96E40C04FF13FC04EF13EC04DF12F
:103040003DC04CF1010E0101506F0001CADD430E7D
:103050000101596F000192EC05F091EF25F02CC0B1
:1030600059F12BC058F174EC0BF00101706B6F6BD0
:10307000200E6E6F780E6D6F03C074F102C073F195
:1030800001C072F100C071F100018FEC0BF003C0C0
:1030900047F102C046F101C045F100C044F130C023
:1030A00059F12FC058F174EC0BF00101706B6F6B8C
:1030B000200E6E6F750E6D6F03C074F102C073F158
:1030C00001C072F100C071F100018FEC0BF003C080
:1030D0004BF102C04AF101C049F100C048F185EC52
:1030E00005F01E0EF66E030EF76E070E01014C6F13
:1030F0000001C4EC06F0C90EE96E4BC14FF14AC1A4
:103100004EF149C14DF148C14CF1010E0101506F22
:10311000000167DD2B0EF66E030EF76E060E010141
:103120004C6F0001C4EC06F0400E01014C6F000131
:10313000A8EC05F0320EF66E030EF76E070E0101D5
:103140004C6F0001C4EC06F0C90EE96E47C14FF1A7
:1031500046C14EF145C14DF144C14CF1010E010192
:10316000506F00013EDD3F0EF66E030EF76E060E49
:1031700001014C6F0001C4EC06F096EF25F001014F
:103180004551FB0F2DE2050F0001F2EF18F0720E12
:10319000F66E030EF76E98EC05F0010121D07E0E5D
:1031A000F66E030EF76E98EC05F0010119D0860E4D
:1031B000F66E030EF76E98EC05F0010111D08E0E3D
:1031C000F66E030EF76E98EC05F0010109D0980E2B
:1031D000F66E030EF76E98EC05F0010101D00101C7
:1031E00000011200E824F76AF736FF0FF66E310E81
:1031F000F7220A00F550FA6E0800F550F96E8E318C
:103200009E31AE31BE31CE3185EC05F00101445323
:1032100045E1D80EF66E030EF76E000198EC05F04E
:1032200051B007D0DC0EF66E030EF76E98EC05F089
:1032300006D0E00EF66E030EF76E98EC05F02D0E3C
:103240000101596F000192EC05F05FC045F197DF75
:10325000400E01014C6F0001A8EC05F0E40EF66E83
:10326000030EF76E98EC05F051B207D0E80EF66E3B
:10327000030EF76E98EC05F006D0EC0EF66E030E1A
:10328000F76E98EC05F02D0E0101596F000192ECDC
:1032900005F060C045F173DF20D00101F00EF66E3D
:1032A000030EF76E000198EC05F051B407D0F40E50
:1032B000F66E030EF76E98EC05F006D0F80EF66E7B
:1032C000030EF76E98EC05F02D0E0101596F000109
:1032D00092EC05F061C045F152DF120085EC05F07B
:1032E000FC0EF66E030EF76E98EC05F0400E010131
:1032F0004C6F0001A8EC05F0100EE96E20C04CF1F7
:103300001FC04BF1D8EC06F0C1EF25F0400E0101D3
:103310004C6F0001A8EC05F0F40EF66E020EF76E8D
:1033200098EC05F0CBEF24F0400E01014C6F00014A
:10333000A8EC05F0B40EF66E020EF76E98EC05F0F0
:10334000120001014651FB0F2DE2050F0001D5EFE0
:1033500019F0A20EF66E030EF76E98EC05F001015F
:1033600021D0AE0EF66E030EF76E98EC05F001015B
:1033700019D0BC0EF66E030EF76E98EC05F0010145
:1033800011D0C40EF66E030EF76E98EC05F0010135
:1033900009D0CE0EF66E030EF76E98EC05F0010123
:1033A00001D0010100011CEF1AF0E824F76AF7369A
:1033B000C50FF66E330EF7220A00F550FA6E0800BC
:1033C000F550F96E5233623372338233923385ECA7
:1033D00005F001012EBB2CD0410E4525466FEA0EAB
:1033E000F66E050EF76E060E4C6F0001C4EC06F08B
:1033F00046C159F192EC05F0F20EF66E050EF76E2D
:10340000050E01014C6F0001C4EC06F08DDF54A0E5
:103410000DD0549001012E8B036A45515F0FE96E68
:10342000000E0320EA6EEFCF3FF100013DD0010115
:103430003FC146F1000185D7036A010145515F0F85
:10344000E96E000E0320EA6EEF503F5D05E12A0EA3
:10345000596F000192EC05F00001CEEC07F053AE7D
:1034600006D0539E01013F5301E03F07000154A0E5
:1034700012D05490036A010145515F0FE96E000EAE
:103480000320EA6E3FC1EFFF000104EC06F00101EA
:103490002E9B5380000153AC07D0539C01013F5138
:1034A000040801E03F2B0001000E01012EBB010EBC
:1034B000016E0001120085EC05F001012EB120D053
:1034C000410E4625476F0A0EF66E040EF76E060E85
:1034D0004C6F0001C4EC06F047C159F192EC05F0C5
:1034E000120EF66E040EF76E090E01014C6F00010C
:1034F000C4EC06F019DF54A004D0549001012E81D1
:10350000000101012EA121D0000185EC05F01C0E67
:10351000F66E040EF76E98EC05F0400E01014C6F4C
:103520000001A8EC05F02E0EF66E040EF76E98EC76
:1035300005F0080E0101476FFA0E6E6F00012CECCA
:1035400004F00101472FF8D72E91000E2EB1010E85
:10355000016E000143EF22F001014F51016A4E5DFF
:1035600003E24EC100F00CD0006A080E506F4E37D7
:1035700000364F51005CD8B0006E0136502FF7D79F
:103580000001120001504CC14EF1640E01014F6F59
:103590000001E2DF00C04CF10150300E08E10101F2
:1035A0004DA310D04DB70ED04DB9200E04D001015F
:1035B0004D974D994D81012601C059F1000192ECC2
:1035C00005F001014CC14EF10A0E4F6F0001C4DF3E
:1035D00000C04CF10150300E08E101014DB70BD095
:1035E0004DA109D04DB9200E0001012601C059F1AD
:1035F00092EC05F00101300E4C274CC159F100014D
:1036000092EC05F0120085EC05F0010135532EE136
:10361000410E46254B6FF40EF66E040EF76E060E45
:103620004C6F0001C4EC06F04BC159F192EC05F06F
:10363000FC0EF66E040EF76E090E01014C6F0001D0
:10364000C4EC06F071DE54A00FD05490010E0101BD
:10365000356F036A4651620FE96E000E0320EA6E71
:10366000EFCF36F15380000163D20101352D3BD0FD
:10367000010E36254B6F060EF66E050EF76E0B0E1D
:103680004C6F0001C4EC06F04BC14CF11B0E010164
:103690004D6F000177DFCEEC07F054A00FD05490AF
:1036A0005380036A01014651650FE96E000E032045
:1036B000EA6EEFCF37F1020E356F000153AC08D040
:1036C000539C5380010136510208D8B0362B0001BB
:1036D00053AE07D0539E538001013653D8A436070A
:1036E000000126D201013551020870E1010E372593
:1036F0004B6F140EF66E050EF76E0A0E4C6F00013E
:10370000C4EC06F04BC14CF11B0E01014D6F0001E2
:1037100039DFCEEC07F054A048D05490538001011B
:103720003751365D43E0030E356FD8904635036A56
:10373000680FE96E000E0320EA6EECCF03F0ED5245
:10374000EFCF38F103C039F10001872D2ED039C1F8
:1037500059F138C158F174EC0BF0660E0101706F2D
:103760006F6F6E6F7F0E6D6F03C074F102C073F1E7
:1037700001C072F100C071F100018FEC0BF003C0C9
:103780004AF102C049F101C048F100C047F14AC105
:103790004EF149C14DF148C14CF147C14BF1B1EC7B
:1037A00012F002C039F101C038F1010153AC06D06A
:1037B000539C538037510208D8B0372B53AE05D0F5
:1037C000539E53803753D8A43707B2D135510308DD
:1037D000D8A4E3D0220EF66E050EF76E090E4C6FDC
:1037E0000001C4EC06F0090EE96E39C14CF138C194
:1037F0004BF1D8EC06F0DF0E0101596F000192EC9D
:1038000005F0872D07D0460E0101596F000192EC9B
:1038100005F006D0430E0101596F000192EC05F04E
:10382000CEEC07F053AC0ED0539C01013951030884
:1038300007E303E13851FE0803E3382BD8B4392BF2
:103840005380000153AE0CD0539E0101385302E166
:10385000395304E03851D8B4390738075380000190
:1038600054A099D05490872D38D039C159F138C11E
:1038700058F174EC0BF000C04BF101C04CF102C0E8
:103880004DF103C04EF103C070F102C06FF101C0F1
:103890006EF100C06DF12E0E0101746F390E736F61
:1038A0000E0E726F7E0E716F00018FEC0BF003C075
:1038B0004AF102C049F101C048F100C047F14AC1D4
:1038C0004EF149C14DF148C14CF147C14BF1B1EC4A
:1038D00012F002C039F101C038F1040E0101356F58
:1038E000D8904635036A6E0FE96E000E0320EA6E2B
:1038F000ECCF03F0ED52EFCF3AF103C03BF1000102
:10390000872D48D03BC159F13AC158F174EC0BF006
:10391000660E0101706F6F6F6E6F7F0E6D6F03C06B
:1039200074F102C073F101C072F100C071F10001C5
:103930008FEC0BF000C04BF101C04CF102C04DF117
:1039400003C04EF1D89203C074F102C073F101C0FC
:1039500072F100C071F10101786B776B766B840EA8
:10396000756F00010AEC0CF003C04AF102C049F186
:1039700001C048F100C047F14AC14EF149C14DF1C3
:1039800048C14CF147C14BF1B1EC12F002C03BF120
:1039900001C03AF15380CCD0010135510408D8A4BC
:1039A00093D0340EF66E050EF76E0A0E4C6F0001C2
:1039B000C4EC06F0090EE96E3BC14CF13AC14BF183
:1039C000D8EC06F0DF0E0101596F000192EC05F012
:1039D000872D07D0460E0101596F000192EC05F0CA
:1039E00006D0430E0101596F000192EC05F0CEECB8
:1039F00007F053AC0FD0539C01013B51030808E37F
:103A000003E13A51F50804E3050E3A27000E3B2383
:103A10005380000153AE0DD0539E01013B5303E18F
:103A20003A51040804E2050E3A5F000E3B5B5380F6
:103A3000000154A047D05490872D3FD0200E0101A3
:103A40003A5D006E000E3B59036E00C058F1596F8D
:103A5000000174EC0BF000C04BF101C04CF102C04E
:103A60004DF103C04EF103C070F102C06FF101C00F
:103A70006EF100C06DF12E0E0101746F390E736F7F
:103A80000E0E726F7E0E716F00018FEC0BF003C093
:103A90004AF102C049F101C048F100C047F14AC1F2
:103AA0004EF149C14DF148C14CF147C14BF1B1EC68
:103AB00012F002C03BF101C03AF1050E0101356F71
:103AC0005380000135D001013551050831E1036A09
:103AD0004651620FE96E000E0320EA6E36C1EFFF19
:103AE000036A4651650FE96E000E0320EA6E37C186
:103AF000EFFFD8904635036A680FE96E000E032089
:103B0000EA6E39C1ECFFED5238C1EFFFD89046356F
:103B1000036A6E0FE96E000E0320EA6E3BC1ECFFF4
:103B2000ED523AC1EFFF000104EC06F00101356BE4
:103B30000101355302E1000E01D0010E016E0001BA
:103B400049EF22F0EACF53F1E9CF52F101014CAF36
:103B500008D0528F52A9522B4B1F4C1F4B2BD8B45D
:103B60004C2B4C39F0094E6F4E27E20F4F6F320F3E
:103B7000516F4C510F0B4F274F275127E90F506FB3
:103B8000502750274B390F0B5027512750375137AB
:103B9000511F51374B510F0B51274E37070E4D6FA9
:103BA0000A0E50075127FDE34F075027FDE34E074C
:103BB0004F27FDE34D074E27FDE3010EEA6E4D0E44
:103BC000E96E070E5215529DE906521507E152B9EA
:103BD000E92A52B903D0200E006E1CD0E926510EFE
:103BE000E95CD8B4528DEF50006E08E152BD06D0AA
:103BF00052B91ED052B702D0200E0BD052AF06D011
:103C00002D0E006EED50529D529F04D05287529956
:103C1000300E0026EACF4CF1E9CF4BF100C059F14C
:103C2000000192EC05F04CC1EAFF4BC1E9FF010134
:103C3000EE5052ADD4D70001120085EC05F0010121
:103C40002F5325E1410E46254B6F6E0EF66E040E86
:103C5000F76E060E4C6F0001C4EC06F04BC159F133
:103C600092EC05F0760EF66E040EF76E090E010169
:103C70004C6F0001C4EC06F094EC19F054A005D090
:103C80005490010E01012F6F0001AAD101012F51A3
:103C90000008D8B0F8D02F510408D8A0F4D0800E76
:103CA000F66E040EF76E0C0E4C6F0001C4EC06F0BD
:103CB0002FC14CF11B0E01014D6F000163DC3F0E63
:103CC0000101596F000192EC05F0400E01014C6FAB
:103CD0000001A8EC05F0900EF66E040EF76E98EC5D
:103CE00005F0036A01014651740FE96E000E0320CE
:103CF000EA6EEFCF4BF1010E2F5D4C6F4BC100F020
:103D00004C51016E04E0D8900032012EFCD700A087
:103D10000DD0430E4C6F0001A8EC05F02A0E0101F6
:103D2000596F000192EC05F00CD001014F0E4C6F61
:103D30000001A8EC05F02A0E0101596F000192EC78
:103D400005F054A004D0549001012F2B000153AE74
:103D50001CD0539E036A01014651740F016E000E80
:103D6000032201C0E9FF03C0EAFF010E2F5D4B6F84
:103D7000010E006E4B51016E04E0D8900036012E0A
:103D8000FCD70050EF122F2B000153AC1CD0539CDA
:103D9000036A01014651740F016E000E032201C037
:103DA000E9FF03C0EAFF010E2F5D4B6F010E006EAD
:103DB0004B51016E04E0D8900036012EFCD7005024
:103DC000FF0AEF162F2B01012F5104085BE1D89059
:103DD0004635036A770FE96E000E0320EA6EECCFDA
:103DE00003F0ED52EFCF30F103C031F10001872D28
:103DF00048D031C16EF130C16DF132EC0EF0660E7B
:103E00000101706F6F6F6E6F7F0E6D6F03C074F185
:103E100002C073F101C072F100C071F100018FECBA
:103E20000BF000C04BF101C04CF102C04DF103C0DA
:103E30004EF1D89203C074F102C073F101C072F167
:103E400000C071F10101786B776B766B840E756F32
:103E500000010AEC0CF003C04AF102C049F101C0B4
:103E600048F100C047F14AC14EF149C14DF148C186
:103E70004CF147C14BF1B1EC12F002C031F101C07D
:103E800030F10101ADD02F510508D8A4A4D0A00E67
:103E9000F66E040EF76E080E4C6F0001C4EC06F0CF
:103EA0000A0EE96E31C14CF130C14BF14BDEDF0E31
:103EB0000101596F000192EC05F0872D07D0460EE5
:103EC0000101596F000192EC05F006D0430E01018B
:103ED000596F000192EC05F0CEEC07F053AC10D016
:103EE000539C010131BF07D03151030807E303E1BF
:103EF0003051FE0803E3302BD8B4312B538000013E
:103F000053AE12D0539E010131AF08D03151FB089E
:103F100009E2FF0A03E13051010804E23051D8B44C
:103F2000310730075380000154A053D05490872D9F
:103F30003FD0200E0101305D006E000E3159036E3E
:103F400000C06DF16E6F000132EC0EF000C04BF15D
:103F500001C04CF102C04DF103C04EF103C070F13D
:103F600002C06FF101C06EF100C06DF12E0E0101B3
:103F7000746F390E736F0E0E726F7E0E716F0001CB
:103F80008FEC0BF003C04AF102C049F101C048F1C7
:103F900000C047F14AC14EF149C14DF148C14CF151
:103FA00047C14BF1B1EC12F002C031F101C030F168
:103FB000D89001014635036A770FE96E000E0320A1
:103FC000EA6E31C1ECFFED5230C1EFFF53802F2B71
:103FD000000106D00101000104EC06F001012F6B85
:103FE00001012F5302E1000E01D0010E016E00010C
:103FF0004FEF22F085EC05F00101325325E1410E2F
:1040000046254B6FB00EF66E040EF76E060E4C6F23
:104010000001C4EC06F04BC159F192EC05F0B80E6A
:10402000F66E040EF76E090E01014C6F0001C4EC30
:1040300006F094EC19F054A005D05490010E010143
:10404000326F0001ABD1010132510008D8B0F9D074
:1040500032510408D8A0F5D0C20EF66E040EF76EE9
:104060000C0E4C6F0001C4EC06F032C14CF11B0E7B
:1040700001014D6F0001C2EC1AF03F0E0101596FB2
:10408000000192EC05F0400E01014C6F0001A8EC1C
:1040900005F0D20EF66E040EF76E98EC05F0036A8A
:1040A000010146517D0FE96E000E0320EA6EEFCF4D
:1040B0004BF1010E325D4C6F4BC100F04C51016E63
:1040C00004E0D8900032012EFCD700A00DD0430EA2
:1040D0004C6F0001A8EC05F02A0E0101596F000198
:1040E00092EC05F00CD001014F0E4C6F0001A8ECD2
:1040F00005F02A0E0101596F000192EC05F054A061
:1041000004D054900101322B000153AE1CD0539EB9
:10411000036A010146517D0F016E000E032201C0AA
:10412000E9FF03C0EAFF010E325D4B6F010E006E26
:104130004B51016E04E0D8900036012EFCD70050A0
:10414000EF12322B000153AC1CD0539C036A0101C7
:1041500046517D0F016E000E032201C0E9FF03C02E
:10416000EAFF010E325D4B6F010E006E4B51016E86
:1041700004E0D8900036012EFCD70050FF0AEF165D
:10418000322B0101325104085BE1D8904635036AB5
:10419000800FE96E000E0320EA6EECCF03F0ED52C3
:1041A000EFCF33F103C034F10001872D48D034C183
:1041B0006EF133C16DF132EC0EF0660E0101706FDD
:1041C0006F6F6E6F7F0E6D6F03C074F102C073F17D
:1041D00001C072F100C071F100018FEC0BF000C062
:1041E0004BF101C04CF102C04DF103C04EF1D89229
:1041F00003C074F102C073F101C072F100C071F12B
:104200000101786B776B766B840E756F00010AEC99
:104210000CF003C04AF102C049F101C048F100C0EE
:1042200047F14AC14EF149C14DF148C14CF147C176
:104230004BF1B1EC12F002C034F101C033F10101D5
:10424000ADD032510508D8A4A4D0E20EF66E040E0B
:10425000F76E090E4C6F0001C4EC06F00A0EE96E11
:1042600034C14CF133C14BF16DDCDF0E0101596FEC
:10427000000192EC05F0872D07D0460E0101596F21
:10428000000192EC05F006D0430E0101596F0001C8
:1042900092EC05F0CEEC07F053AC10D0539C01012A
:1042A00034BF07D03451030807E303E13351FE085C
:1042B00003E3332BD8B4342B5380000153AE12D018
:1042C000539E010134AF08D03451FB0809E2FF0AC4
:1042D00003E13351010804E23351D8B43407330702
:1042E0005380000154A053D05490872D3FD0200E0E
:1042F0000101335D006E000E3459036E00C06DF194
:104300006E6F000132EC0EF000C04BF101C04CF1B9
:1043100002C04DF103C04EF103C070F102C06FF155
:1043200001C06EF100C06DF12E0E0101746F390EE7
:10433000736F0E0E726F7E0E716F00018FEC0BF0BB
:1043400003C04AF102C049F101C048F100C047F181
:104350004AC14EF149C14DF148C14CF147C14BF141
:10436000B1EC12F002C034F101C033F1D890010178
:104370004635036A800FE96E000E0320EA6E34C1F1
:10438000ECFFED5233C1EFFF5380322B000106D01A
:104390000101000104EC06F00101326B010132530E
:1043A00002E1000E01D0010E016E000154EF22F077
:1043B00085EC05F001012EB321D0410E4625476F53
:1043C0003C0EF66E040EF76E060E4C6F0001C4EC48
:1043D00006F047C159F192EC05F0440EF66E040E5A
:1043E000F76E090E01014C6F0001C4EC06F094EC6D
:1043F00019F054A004D0549001012E830001010152
:104400002EA321D0000185EC05F04E0EF66E040EB1
:10441000F76E98EC05F0400E01014C6F0001A8EC1E
:1044200005F0600EF66E040EF76E98EC05F0080EBF
:104430000101476FFA0E6E6F00012CEC04F00101D0
:10444000472FF8D72E93000E2EB3010E016E0001F8
:1044500059EF22F0036A010145515F0FE96E000E2A
:104460000320EA6EEF50040A000109E0050A0DE09E
:10447000030A11E0010A15E0030A18E017D045C14C
:1044800046F15BEF1AF0015016D045C146F103EF3B
:104490001BF0015010D045C146F11DEF1EF0015038
:1044A0000AD045C146F1A6D5015005D045C146F117
:1044B0007FD7015000D0120085EC05F001012EBD20
:1044C00011D0F80EF66E050EF76E000198EC05F0AF
:1044D00094EC19F054A004D0549001012E8D0001E9
:1044E0004AD001010A0EF66E060EF76E000198EC36
:1044F00005F0400E01014C6F0001A8EC05F01A0E0A
:10450000F66E060EF76E98EC05F087530DE1420E3D
:1045100001014C6F0001A8EC05F02A0E0101596F52
:10452000000192EC05F00ED0872D0CD04F0E01014A
:104530004C6F0001A8EC05F02A0E0101596F000133
:1045400092EC05F053AE07D0539E876B04EC06F057
:1045500001012E9D000154A004D0549001012E9D14
:10456000000153AC08D0539C010E876F04EC06F099
:1045700001012E9D0001000E01012EBD010E016EF4
:10458000000105EF25F085EC05F001012EB513D0F3
:10459000460EF66E050EF76E000198EC05F094ECF1
:1045A00019F054A006D0549001012E855EC03CF154
:1045B0000001B4D001013C51FA0F5FE2060F000187
:1045C00096EF23F0010EEA6E450EE96E000E76ECD2
:1045D00000F00A000900F550EE6E0009FBE1010150
:1045E0004CD0010EEA6E450EE96E000E80EC00F034
:1045F0000A000900F550EE6E0009FBE101013DD013
:10460000010EEA6E450EE96E000E8AEC00F00A001B
:104610000900F550EE6E0009FBE101012ED0010EFC
:10462000EA6E450EE96E000E94EC00F00A000900F7
:10463000F550EE6E0009FBE101011FD0010EEA6E9C
:10464000450EE96E000E9EEC00F00A000900F550E0
:10465000EE6E0009FBE1010110D0010EEA6E450E7D
:10466000E96E000EA8EC00F00A000900F550EE6EAD
:104670000009FBE1010101D001013C51060809E1FB
:10468000540EF66E050EF76E000198EC05F01CD086
:104690000101640EF66E050EF76E060E4C6F0001FA
:1046A000C4EC06F0010EEA6E450EE96ED9EC07F097
:1046B000300E0101596F000192EC05F0300E01013E
:1046C000596F000192EC05F05E5001013C5D05E17F
:1046D0002A0E596F000192EC05F00001CEEC07F0B4
:1046E00053AE06D0539E01013C5301E03C0700014C
:1046F00054A00BD054903CC15EF072EC03F004EC7B
:1047000006F001012E955380000153AC07D0539C55
:1047100001013C51060801E03C2B0001000E0101A3
:104720002EB5010E016E00010BEF25F0E824F76AAB
:10473000F736470FF66E470EF7220A00F550FA6E6D
:104740000800F550F96EC445E24500461E463C4659
:104750005A4685EC05F001012EB913D0C40EF66E51
:10476000050EF76E000198EC05F094EC19F054A0DA
:1047700006D0549001012E8989C03EF100013CD041
:1047800001013E51010A000101E007D0D20EF66E90
:10479000050EF76E98EC05F007D0E00EF66E050EEC
:1047A000F76E98EC05F000D0895101013E5D05E1FE
:1047B0002A0E596F000192EC05F00001CEEC07F0D3
:1047C00053AE06D0539E01013E5301E03E07000167
:1047D00054A009D054903EC189F004EC06F00101C8
:1047E0002E995380000153AC07D0539C01013E2DFC
:1047F00001D001D03E2B0001000E01012EB9010EA7
:10480000016E000111EF25F085EC05F001012EB7D6
:1048100013D0700EF66E050EF76E000198EC05F0E1
:1048200094EC19F054A006D0549001012E8788C052
:104830003DF1000157D001013D51010A000107E09F
:10484000030A0CE0010A11E0070A16E01CD07C0EF6
:10485000F66E050EF76E98EC05F01CD08C0EF66E19
:10486000050EF76E98EC05F015D09C0EF66E050E51
:10487000F76E98EC05F00ED0AC0EF66E050EF76EE6
:1048800098EC05F007D0B40EF66E050EF76E98ECB6
:1048900005F000D0885101013D5D05E12A0E596FF8
:1048A000000192EC05F00001CEEC07F053AE06D00B
:1048B000539E01013D5301E03D07000154A009D082
:1048C00054903DC188F004EC06F001012E9753800E
:1048D000000153AC07D0539C01013D51040801E095
:1048E0003D2B0001000E01012EB7010E016E0001EB
:1048F0002CEF25F0400E01014C6F0001A8EC05F0F3
:10490000EA0EF66E020EF76E98EC05F0A4EF24F0B6
:1049100001012EBF11D02A0EF66E060EF76E0001B1
:1049200098EC05F094EC19F054A004D054900101D7
:104930002E8F000117D001013C0EF66E060EF76EA9
:10494000000198EC05F0D6D753AE04D0539E010178
:104950002E9F000154A003D02DEC06F0FF0053ACB5
:1049600001D0539C000E01012EBF010E016E00010B
:1049700032EF25F001014491000185EC05F00101C1
:10498000405312E14E0EF66E060EF76E000198ECE3
:1049900005F086EF19F054A005D05490010E0101E6
:1049A000406F000174D00101010E405DF50F60E21F
:1049B0000B0F000151EF25F00101456B0001E7EC01
:1049C00019F00101449101B0448152D00101456BBD
:1049D000000140DD0101449101B0448149D0010E44
:1049E0000101456F0001E7EC19F00101449101B0AC
:1049F00044813ED0010E0101456F00012BDD010114
:104A0000449101B0448134D057D50101449101B0A3
:104A100044812ED0B8D50101449101B0448128D001
:104A200098D60101449101B0448122D0020E0101C7
:104A3000456F0001E7EC19F00101449101B0448198
:104A400017D0020E0101456F000104DD0101449100
:104A500001B044810DD0D8D60101449101B0448108
:104A600007D056D70101449101B0448101D0010122
:104A700044B10DD053AE02D0539E400753AC07D083
:104A8000539C40510B0802E1406B01D0402B0101C7
:104A9000405302E1000E01D0010E016E0001C6EF8D
:104AA00025F0E824F76AF736BD0FF66E4A0EF722B6
:104AB0000A00F550FA6E0800F550F96EB849CC4975
:104AC000DE49F449084A144A204A2C4A424A564AC6
:104AD000624A010142B10BD053AC09D0539C010E84
:104AE000436F4151040802E3412B01D0416B42B1B5
:104AF0000AD053AE08D0539E4369415302E04107A8
:104B000002D0050E416F4151FA0F46E2060F000137
:104B1000CFEF25F0872D03D0CBEF16F002D07DEF3D
:104B200017F00101429138D02FEF18F001014291A6
:104B300033D00101446B000104EC19F001014291F2
:104B40002BD05E50060807E1010143514125416F1A
:104B5000DAD70AD00001010E0101446F000104EC14
:104B600019F00101429118D000015E50060807E1DA
:104B7000010143514125416FC6D706D000016EEFB8
:104B800019F00101429108D00001F4D601014291CF
:104B900001B0428101D001010001F2EF28F0E824C8
:104BA000F76AF736B90FF66E4B0EF7220A00F5508A
:104BB000FA6E0800F550F96E144B284B324B424BFD
:104BC0006A4B8A4B01017369726970517007000A60
:104BD00026E06FC103F06E516E2BD8B46F2BE96ED7
:104BE00003C0EAFFEF50721B716B7151070816E3A7
:104BF0007251010B006E036A005003100AE0D89056
:104C00007331756F7231010A726F7551A00A736F3B
:104C100003D0D89073337233712BE7D7D6D772C1D4
:104C200001F073C102F00001DDEF26F0929C899C37
:104C30000E0E01016E6F00012CEC04F0230E010139
:104C4000436F5AC044F15CC045F15BC046F1260E8B
:104C5000476F0C0E486F6F6B310E6FC16DF16C6F4B
:104C60006CC1E9FF6DC1EAFFEFCF49F1010E6C2580
:104C7000E96E000E6D21EA6EEFCF4AF1020E6C254F
:104C8000E96E000E6D21EA6EEFCF4BF1030E6C253D
:104C9000E96E000E6D21EA6EEFCF4CF16F6B350EB1
:104CA0006FC16DF16C6F6CC1E9FF6DC1EAFFEFCFB1
:104CB0004DF1010E6C25E96E000E6D21EA6EEFCF0D
:104CC0004EF1020E6C25E96E000E6D21EA6EEFCFFB
:104CD0004FF1030E6C25E96E000E6D21EA6EEFCFE9
:104CE00050F16F6B390E6FC16DF16C6F6CC1E9FFE4
:104CF0006DC1EAFFEFCF51F1010E6C25E96E000E98
:104D00006D21EA6EEFCF52F1020E6C25E96E000EB6
:104D10006D21EA6EEFCF53F1030E6C25E96E000EA4
:104D20006D21EA6EEFCF54F16F6B3D0E6FC16DF1E7
:104D30006C6F6CC1E9FF6DC1EAFFEFCF55F1010E59
:104D40006C25E96E000E6D21EA6EEFCF56F1020E72
:104D50006C25E96E000E6D21EA6EEFCF57F1030E60
:104D60006C25E96E000E6D21EA6EEFCF58F12AC076
:104D700059F129C05AF12CC05BF12BC05CF12EC057
:104D80005DF12DC05EF130C05FF12FC060F1616B4D
:104D900051B0612B626B51B2622B636B51B4632BC8
:104DA000646B20C065F11FC066F1010E6F6F440E89
:104DB0006E6F230E706F000105D702C06AF101C04B
:104DC00069F101016AC167F169C168F16B6B6B51EF
:104DD000250810E3036A6B51430FE96E010E0320AF
:104DE000EA6EEFCF6EF16E5100016EEC03F001013F
:104DF0006B2BEDD7929C898C0001F8EF28F0F86AB4
:104E0000D09E078EEA6AE96A600ED36ED350B886E8
:104E1000100EAF6E000EB06EA60EAC6E900EAB6EA6
:104E2000B26BB36BD46BD56BF66BF76B0101186B80
:104E3000196B1B6B1A6B1C6B1E6B1D6B206B1F6B36
:104E4000226B216B2D6B2C6B2E912E932F6B326B63
:104E5000356B2E952E972E992E9B2E9D2E9F406B57
:104E60004291C150C00B0F09C16E070EB46E196A92
:104E70001A6A0001926B936B946B956B966B976BB0
:104E8000986B996B9A6B9B6B9C6B9D6B9E6B9F6BEE
:104E9000A06BA16BA26BA36BA46BA56BA66BA76B9E
:104EA000A86BA96BAA6BAB6BAC6BAD6BAE6BAF6B4E
:104EB000B06BB16BB46BB56BB66BB76BB86BB96BF2
:104EC000BA6BBB6BBC6BBD6BBE6BBF6BC06BC16B9E
:104ED000C26BC36BC46BC56BC66BC76BC86BC96B4E
:104EE000CA6BCB6BCC6BCD6BCE6BCF6BD06BD16BFE
:104EF000D26BD36BD66BD76BD86BD96BDA6BDB6BA2
:104F0000DC6BDD6BDE6BDF6BE06BE16BE26BE36B4D
:104F1000E46BE56BE66BE76BE86BE96BEA6BEB6BFD
:104F2000EC6BED6BEE6BEF6BF06BF16BF26BF36BAD
:104F3000F46BF56BF86BF96BFA6BFB6BFC6BFD6B51
:104F4000FE6BFF6B0101006B016B026B036B046B6B
:104F5000056B066B076B086B096B0A6B0B6B0C6BB5
:104F60000D6B0E6B0F6B106B116B126B136B146B65
:104F7000156B166B176B236B246B256B266B276BDE
:104F8000286B296B2A6B2B6B306B316B336B346B5B
:104F9000366B376B386B396B3A6B3B6B3C6B3D6BED
:104FA0003E6B3F6B416B0001CDEF04F0C80E010179
:104FB0006E6F00012CEC04F098EF06F072EC03F039
:104FC00085EC05F0860EF66E060EF76E98EC05F091
:104FD000400E01014C6F0001A8EC05F0960EF66E34
:104FE000060EF76E98EC05F0030E0101436FFA0E02
:104FF0006E6F00012CEC04F00101432FF8D7000183
:1050000085EC05F0A00EF66E060EF76E040E01019B
:105010004C6F0001C4EC06F05AC059F192EC05F057
:10502000080EE96E5CC04CF15BC04BF1D8EC06F0A9
:10503000AC0EF66E060EF76E120E0101436F000104
:1050400036EF07F0C40EF66E060EF76E4CEF07F063
:105050000D0E9EA8FED7AD6E0A0E9EA8FED7AD6EB1
:10506000020E0101436FFA0E6E6F00012CEC04F08A
:105070000101432FF8D7938A81BA0AD0938C81BC5F
:1050800007D0938E81BE04D000012DEC06F0010103
:10509000938A81BA30D0000185EC05F0CE0EF66E11
:1050A000060EF76E98EC05F0DF0E0101596F000156
:1050B00092EC05F0872D08D0876B430E0101596FE4
:1050C000000192EC05F008D0010E876F460E010139
:1050D000596F000192EC05F0040E0101436FFA0EC6
:1050E0006E6F00012CEC04F00101432FF8D7000192
:1050F00004EC06F001015A50410804E15B5202E160
:105100005C5209E0938A81BA0AD0938C81BC07D0A3
:10511000938E81AE04D00001C4EF08F001010400B9
:1051200053A850D0466B00012DEC09F002C044F1A9
:1051300001C043F102C046F101C045F1D8EF09F0CA
:1051400002C022F001C021F0010E0101466F0001F2
:105150002DEC09F002C044F101C043F102C046F158
:1051600001C045F140EF0AF002C024F001C023F075
:10517000020E0101466F00012DEC09F002C044F15E
:1051800001C043F102C046F101C045F1A8EF0AF0A9
:1051900002C026F001C025F0030E0101466F000198
:1051A0002DEC09F002C044F101C043F102C046F108
:1051B00001C045F110EF0BF002C028F001C027F04C
:1051C0005398010153A209D053920001E6EF11F068
:1051D0008CEF12F0EFEF12F0010153A004D05390C6
:1051E000000177D4010153A404D0539400011ED5CB
:0651F000010195D7030048
:020000040030CA
:0E0000000048181B000581000FC00FE00F40E4
:00000001FF
;PIC18F2620
;CRC=4202  CREATED="11-Jul-15 19:19"
